{
  "_format": "hh-sol-artifact-1",
  "contractName": "CertificateVerification",
  "sourceName": "contracts/contract.sol",
  "abi": [
    {
      "inputs": [],
      "stateMutability": "nonpayable",
      "type": "constructor"
    },
    {
      "anonymous": false,
      "inputs": [
        {
          "indexed": false,
          "internalType": "string",
          "name": "certificateId",
          "type": "string"
        },
        {
          "indexed": false,
          "internalType": "string",
          "name": "studentName",
          "type": "string"
        }
      ],
      "name": "CertificateAdded",
      "type": "event"
    },
    {
      "anonymous": false,
      "inputs": [
        {
          "indexed": false,
          "internalType": "string",
          "name": "certificateId",
          "type": "string"
        }
      ],
      "name": "CertificateVerified",
      "type": "event"
    },
    {
      "inputs": [
        {
          "internalType": "string",
          "name": "_certificateId",
          "type": "string"
        },
        {
          "internalType": "string",
          "name": "_studentName",
          "type": "string"
        },
        {
          "internalType": "string",
          "name": "_course",
          "type": "string"
        },
        {
          "internalType": "string",
          "name": "_grade",
          "type": "string"
        }
      ],
      "name": "addCertificate",
      "outputs": [],
      "stateMutability": "nonpayable",
      "type": "function"
    },
    {
      "inputs": [],
      "name": "admin",
      "outputs": [
        {
          "internalType": "address",
          "name": "",
          "type": "address"
        }
      ],
      "stateMutability": "view",
      "type": "function"
    },
    {
      "inputs": [
        {
          "internalType": "string",
          "name": "_certificateId",
          "type": "string"
        }
      ],
      "name": "verifyCertificate",
      "outputs": [
        {
          "internalType": "string",
          "name": "",
          "type": "string"
        },
        {
          "internalType": "string",
          "name": "",
          "type": "string"
        },
        {
          "internalType": "string",
          "name": "",
          "type": "string"
        },
        {
          "internalType": "uint256",
          "name": "",
          "type": "uint256"
        }
      ],
      "stateMutability": "view",
      "type": "function"
    }
  ],
  "bytecode": "0x608060405234801561001057600080fd5b50336000806101000a81548173ffffffffffffffffffffffffffffffffffffffff021916908373ffffffffffffffffffffffffffffffffffffffff160217905550610bd7806100606000396000f3fe608060405234801561001057600080fd5b50600436106100415760003560e01c806372c44638146100465780638b23d87514610062578063f851a44014610095575b600080fd5b610060600480360381019061005b91906106cc565b6100b3565b005b61007c6004803603810190610077919061068b565b6102bb565b60405161008c9493929190610940565b60405180910390f35b61009d61055c565b6040516100aa91906108ee565b60405180910390f35b60008054906101000a900473ffffffffffffffffffffffffffffffffffffffff1673ffffffffffffffffffffffffffffffffffffffff163373ffffffffffffffffffffffffffffffffffffffff1614610141576040517f08c379a00000000000000000000000000000000000000000000000000000000081526004016101389061099a565b60405180910390fd5b60018460405161015191906108d7565b908152602001604051809103902060040160009054906101000a900460ff16156101b0576040517f08c379a00000000000000000000000000000000000000000000000000000000081526004016101a7906109da565b60405180910390fd5b6040518060a00160405280848152602001838152602001828152602001428152602001600115158152506001856040516101ea91906108d7565b90815260200160405180910390206000820151816000019080519060200190610214929190610580565b506020820151816001019080519060200190610231929190610580565b50604082015181600201908051906020019061024e929190610580565b506060820151816003015560808201518160040160006101000a81548160ff0219169083151502179055509050507f9fad722725d0a8d47409199aaef3c4642bd4796564c69f37aa36d8657434647184846040516102ad929190610909565b60405180910390a150505050565b606080606060006001856040516102d291906108d7565b908152602001604051809103902060040160009054906101000a900460ff16610330576040517f08c379a0000000000000000000000000000000000000000000000000000000008152600401610327906109ba565b60405180910390fd5b600060018660405161034291906108d7565b90815260200160405180910390206040518060a001604052908160008201805461036b90610b00565b80601f016020809104026020016040519081016040528092919081815260200182805461039790610b00565b80156103e45780601f106103b9576101008083540402835291602001916103e4565b820191906000526020600020905b8154815290600101906020018083116103c757829003601f168201915b505050505081526020016001820180546103fd90610b00565b80601f016020809104026020016040519081016040528092919081815260200182805461042990610b00565b80156104765780601f1061044b57610100808354040283529160200191610476565b820191906000526020600020905b81548152906001019060200180831161045957829003601f168201915b5050505050815260200160028201805461048f90610b00565b80601f01602080910402602001604051908101604052809291908181526020018280546104bb90610b00565b80156105085780601f106104dd57610100808354040283529160200191610508565b820191906000526020600020905b8154815290600101906020018083116104eb57829003601f168201915b50505050508152602001600382015481526020016004820160009054906101000a900460ff161515151581525050905080600001518160200151826040015183606001519450945094509450509193509193565b60008054906101000a900473ffffffffffffffffffffffffffffffffffffffff1681565b82805461058c90610b00565b90600052602060002090601f0160209004810192826105ae57600085556105f5565b82601f106105c757805160ff19168380011785556105f5565b828001600101855582156105f5579182015b828111156105f45782518255916020019190600101906105d9565b5b5090506106029190610606565b5090565b5b8082111561061f576000816000905550600101610607565b5090565b600061063661063184610a2b565b6109fa565b90508281526020810184848401111561064e57600080fd5b610659848285610abe565b509392505050565b600082601f83011261067257600080fd5b8135610682848260208601610623565b91505092915050565b60006020828403121561069d57600080fd5b600082013567ffffffffffffffff8111156106b757600080fd5b6106c384828501610661565b91505092915050565b600080600080608085870312156106e257600080fd5b600085013567ffffffffffffffff8111156106fc57600080fd5b61070887828801610661565b945050602085013567ffffffffffffffff81111561072557600080fd5b61073187828801610661565b935050604085013567ffffffffffffffff81111561074e57600080fd5b61075a87828801610661565b925050606085013567ffffffffffffffff81111561077757600080fd5b61078387828801610661565b91505092959194509250565b61079881610a82565b82525050565b60006107a982610a5b565b6107b38185610a66565b93506107c3818560208601610acd565b6107cc81610b90565b840191505092915050565b60006107e282610a5b565b6107ec8185610a77565b93506107fc818560208601610acd565b80840191505092915050565b6000610815601f83610a66565b91507f4f6e6c792061646d696e2063616e2061646420636572746966696361746573006000830152602082019050919050565b6000610855601583610a66565b91507f4365727469666963617465206e6f7420666f756e6400000000000000000000006000830152602082019050919050565b6000610895601a83610a66565b91507f436572746966696361746520616c7265616479206578697374730000000000006000830152602082019050919050565b6108d181610ab4565b82525050565b60006108e382846107d7565b915081905092915050565b6000602082019050610903600083018461078f565b92915050565b60006040820190508181036000830152610923818561079e565b90508181036020830152610937818461079e565b90509392505050565b6000608082019050818103600083015261095a818761079e565b9050818103602083015261096e818661079e565b90508181036040830152610982818561079e565b905061099160608301846108c8565b95945050505050565b600060208201905081810360008301526109b381610808565b9050919050565b600060208201905081810360008301526109d381610848565b9050919050565b600060208201905081810360008301526109f381610888565b9050919050565b6000604051905081810181811067ffffffffffffffff82111715610a2157610a20610b61565b5b8060405250919050565b600067ffffffffffffffff821115610a4657610a45610b61565b5b601f19601f8301169050602081019050919050565b600081519050919050565b600082825260208201905092915050565b600081905092915050565b6000610a8d82610a94565b9050919050565b600073ffffffffffffffffffffffffffffffffffffffff82169050919050565b6000819050919050565b82818337600083830152505050565b60005b83811015610aeb578082015181840152602081019050610ad0565b83811115610afa576000848401525b50505050565b60006002820490506001821680610b1857607f821691505b60208210811415610b2c57610b2b610b32565b5b50919050565b7f4e487b7100000000000000000000000000000000000000000000000000000000600052602260045260246000fd5b7f4e487b7100000000000000000000000000000000000000000000000000000000600052604160045260246000fd5b6000601f19601f830116905091905056fea26469706673582212204813c5a102be87f20fa57bd925152441280bd703b0d12843e36b3a71940a180064736f6c63430008000033",
  "linkReferences": {},
  "deployedLinkReferences": {}
}